:100000000C94F8000C94D2040C9415010C94150176
:100010000C9415010C9415010C9415010C94150108
:100020000C9415010C9415010C9415010C941501F8
:100030000C9415010C9415010C9415010C941501E8
:100040000C9415010C9415010C9415010C941501D8
:100050000C9415010C9415010C9415010C941501C8
:100060000C9415010C9415010C9415010C941501B8
:100070000C9415010C9415010C9415010C941501A8
:100080000C942F050C9415010C9415010C9415017A
:100090000C9415010C9415010C9415010C94150188
:1000A0000C9415010C9415010C9415010C94150178
:1000B0000C9415010C9415010C9415010C94150168
:1000C0000C9415010C9415010C941501BB05C00589
:1000D000C505CA05CF05D405D90591067F06810659
:1000E00083068506870689068B068D068F066E6158
:1000F0006E00696E660000407A10F35A00A0724EDE
:1001000018090010A5D4E80000E87648170000E4BC
:100110000B54020000CA9A3B000000E1F505000004
:1001200080969800000040420F000000A086010069
:100130000000102700000000E80300000000640039
:10014000000000000A0000000000010000000000A4
:100150002C76D888DC674F0823DFC1DFAE59E1B1C8
:10016000B796E5E3E453C63AE651997696E8E6C2D7
:100170008426EB898C9B62ED407C6FFCEFBC9C9FDE
:1001800040F2BAA56FA5F490055A2AF75C936B6C00
:10019000F9676DC11BFCE0E40D47FEF520E6B500F4
:1001A000D0ED902E0300943577050080841E080062
:1001B00000204E0A000000C80C333333330F986E12
:1001C00012831141EF8D2114893BE65516CFFEE6CF
:1001D000DB18D1844B381BF77C1D901DA4BBE42495
:1001E000203284725E228100C9F124ECA1E53D2712
:1001F00011241FBECFEFD8E0DEBFCDBF12E0A0E0DC
:10020000B1E0EEE4F2E202C005900D92AE31B1072A
:10021000D9F722E0AEE1B2E001C01D92A333B207EC
:10022000E1F70E9460050C9425110C940000EBE6A8
:10023000F0E0808181608083EEE7F0E0808187607C
:100240008083EAE7F0E0808187608083ACE7B0E0FC
:100250008C9180648C938C9180628C93ABE7B0E03E
:100260008C91887F8C93808180688083808180647A
:1002700080830895ECE7F0E090818071982B908363
:10028000EAE7F0E080818064808380917A0086FDD7
:10029000FCCF809179000895E9E6F0E080818360E9
:1002A00080838DB381608DBB089583E89EE1909338
:1002B000990080939800A0E9B0E08C918C7F8C939A
:1002C000E1E9F0E080818860808380818F7E808397
:1002D0008C918F7C8C9380818560808380818D7FE1
:1002E000808382E080937100089584B18C6184B929
:1002F00085B1846085B985B1877E85B981B18F70FC
:1003000081B98AB18C758AB908958AB180618AB938
:100310008FEF90E09093890080938800A0E8B0E090
:100320008C9181608C93E1E8F0E080818D7F808307
:100330008081806180838081877F80838C918062CF
:100340008C938C918F7E8C9380818460808380815C
:100350008D7F80830895E0E8F0E080818062808373
:1003600080818F7E80830895E0E8F0E080818F7C3B
:10037000808308958AB180648AB98FEF8093B30037
:10038000E0EBF0E080818160808380818D7F8083DD
:10039000A1EBB0E08C9188608C9380818062808337
:1003A00080818F7E80838C9186608C938C918E7FF0
:1003B0008C930895E0EBF0E08081806280838081FF
:1003C0008F7E80830895E0EBF0E080818F7C8083D6
:1003D00008950E94B90A6093B4000895CF93DF9303
:1003E000DC01CB01FA0120E32287218720872783C4
:1003F0002683258324832383228321832083BB2395
:100400004CF4B095A095909581959F4FAF4FBF4FFD
:1004100031E008C030E006C09A5CAA49BB432181A4
:100420002F5F218381302AEC92072AE9A2072BE370
:10043000B20794F706C0915EA54FB54022812F5FA9
:100440002283811521EE920725EFA20725E0B2074E
:1004500094F707C080589649A849B10923812F5FB6
:100460002383803826E9920728E9A207B10594F78B
:1004700007C080549244AF40B10924812F5F248388
:10048000803422E492072FE0A207B10594F707C059
:10049000805A9648A140B10925812F5F2583803A73
:1004A00026E8920721E0A207B10594F707C0805122
:1004B0009742A109B10926812F5F2683803127E267
:1004C0009207A105B1059CF707C0885E9340A1097A
:1004D000B10927812F5F2783883E23E09207A1057A
:1004E000B1059CF707C084569109A109B10920857F
:1004F0002F5F208784369105A105B105A4F706C0BA
:100500000A97A109B10921852F5F21878A309105BA
:10051000A105B105ACF706C00197A109B109228573
:100520002F5F2287181619061A061B06ACF320E067
:1005300001C02F5FDF01A20FB11D8C918033C9F381
:10054000332331F02150DF01A20FB11D8DE28C93D6
:100550004AE0421B30E00DC0832F90E0EF01C80F4E
:10056000D91F820F911DDF01A80FB91F8C918883BD
:100570003F5F431788F7E30FF11D1082DF91CF91A2
:100580000895CF93DF93C82FCC1FCC27CC1F83FBBC
:10059000442740F982FB552750F981FB332730F976
:1005A000982F917028B12B7F28B928B12E7F28B9B8
:1005B00028B12F7028B928B1D0E0D695DC2FCC27F0
:1005C000D795C79586FBAA27A0F9B0E00024B69579
:1005D000A7950794B695A7950794BA2FA02D85FBEC
:1005E000EE27E0F9F0E0EE0FFF1FE295F295F07FC5
:1005F000FE27E07FFE2784FB662760F970E06295A6
:100600007295707F7627607F7627AC2BEA2B6E2B56
:10061000622B68B985E08A95F1F7000088B18460A3
:1006200088B985E08A95F1F7000088B18B7F88B999
:1006300088B18F7088B9E8B1642F70E07695762F15
:10064000662777956795452F50E000245695479586
:100650000794569547950794542F402D232F30E04B
:10066000220F331F22953295307F3227207F322789
:10067000892F90E082959295907F9827807F982788
:10068000462B242B822B8E2B88B995E09A95F1F777
:10069000000088B1846088B985E08A95F1F7000090
:1006A00088B18B7F88B98FE39FE10197F1F700C094
:1006B0000000DF91CF91089587B1806F87B988B12D
:1006C0008F7088B987B1846087B988B18B7F88B90A
:1006D00087B1816087B988B18E7F88B987B1826020
:1006E00087B988B18D7F88B92FEF80E792E02150DC
:1006F00080409040E1F700C0000090E027C088B142
:100700008E7F88B988B18B7F88B988B18F7088B99E
:1007100088B1806388B9E5E0EA95F1F7000088B117
:10072000846088B9F5E0FA95F1F7000088B18B7F15
:1007300088B9EFE3FFE13197F1F700C00000EFE186
:10074000FEE43197F1F700C000009F5F9330B8F2EC
:1007500088B18E7F88B988B18B7F88B988B18F7056
:1007600088B988B1806288B9F5E0FA95F1F70000A0
:1007700088B1846088B925E02A95F1F7000088B136
:100780008B7F88B98FE39FE10197F1F700C00000EC
:1007900088E20E94C10288E00E94C10281E00E94BA
:1007A000C10286E00E94C1028CE00E94C10208954D
:1007B000633031F0643031F0623031F090E005C0E8
:1007C00094E103C094E501C090E48150843108F0C5
:1007D00080E0890F80680E94C1020895CF93DF9363
:1007E000C82FCC1FCC27CC1F83FB442740F982FBAA
:1007F000552750F981FB332730F9982F917028B194
:100800002B7F28B928B1216028B928B12F7028B9C9
:1008100028B1D0E0D695DC2FCC27D795C79586FB9D
:10082000AA27A0F9B0E00024B695A7950794B6953D
:10083000A7950794BA2FA02D85FBEE27E0F9F0E0ED
:10084000EE0FFF1FE295F295F07FFE27E07FFE2777
:1008500084FB662760F970E062957295707F762759
:10086000607F7627AC2BEA2B6E2B622B68B985E074
:100870008A95F1F7000088B1846088B985E08A958F
:10088000F1F7000088B18B7F88B988B18F7088B983
:10089000E8B1642F70E07695762F66277795679597
:1008A000452F50E000245695479507945695479557
:1008B0000794542F402D232F30E0220F331F229511
:1008C0003295307F3227207F3227892F90E0829522
:1008D0009295907F9827807F9827462B242B822BF8
:1008E0008E2B88B995E09A95F1F7000088B1846065
:1008F00088B985E08A95F1F7000088B18B7F88B9C7
:100900008FE39FE10197F1F700C00000DF91CF91E5
:1009100008950F931F93CF938C01C0E003C00E94F2
:10092000EE03CF5FC43130F4F801EC0FF11D80818C
:100930008111F5CFCF911F910F9108950F931F93C0
:10094000CF93DF93CDB7DEB72C970FB6F894DEBF09
:100950000FBECDBF611571058105910521F480E3BE
:100960000E94EE0314C061157105810520E892070D
:1009700071F08E010F5F1F4F2CE0F80111922A9544
:10098000E9F7A8010E94EE01C8010E9489042C9693
:100990000FB6F894DEBF0FBECDBFDF91CF911F9190
:1009A0000F9108951F920F920FB60F9211242F935B
:1009B0008F939F93AF93BF9380911F028150843098
:1009C00008F043C04B9B21C08091230290912402E8
:1009D000A0912502B09126020196A11DB11D809320
:1009E000230290932402A0932502B0932602803420
:1009F0009244AF40B10548F11092230210922402B4
:100A0000109225021092260220C08091230290911C
:100A10002402A0912502B09126020097A105B105FC
:100A200049F410922302109224021092250210928F
:100A300026020BC00197A109B1098093230290936C
:100A40002402A0932502B0932602BF91AF919F91FB
:100A50008F912F910F900FBE0F901F9018951F929E
:100A60000F920FB60F9211248F939F9380911E02C5
:100A70008130C1F495B180E1892785B98091220246
:100A80008F5F80932202833049F4909121029F5F0F
:100A900090932102943010F010922102853010F0D2
:100AA0001092220280911E02811103C085B18F7EB7
:100AB00085B99F918F910F900FBE0F901F90189541
:100AC0000E9475010E9417010E9485010E94BA01CF
:100AD0000E9455010E944C010E945C03789481E0C1
:100AE0000E94C10282E00E94C10261E081E00E9496
:100AF000D8038BE191E00E94890462E081E00E94CA
:100B0000D80380E391E00E9489042FEF87EA91E601
:100B1000215080409040E1F700C0000081E00E9439
:100B2000C10261E081E00E94D80385E491E00E9467
:100B3000890462E081E00E94D8038AE591E00E9486
:100B400089042FEF87EA91E6215080409040E1F739
:100B500000C0000081E00E94C1020E94DE05809377
:100B60003202E0911F02F0E0E730F105B0F7EA59F8
:100B7000FF4F0C94600F0E946B080E94C306EDCFDC
:100B80000E94C8080E94E806E8CF0E941B090E9444
:100B90000D07E3CF0E946E090E943207DECF0E944C
:100BA000DD090E945107D9CF0E946A070E9476078B
:100BB000D4CF0E947F070E94E507CFCF80B1807419
:100BC0008093190190911A01891741F0882311F03F
:100BD000E0E001C0E1E080931A0101C0E0E080B1F3
:100BE00080788093170190911801891729F081115D
:100BF00001C0E2E08093180180B1807280931501FA
:100C000090911601891729F0811101C0E6E08093C7
:100C1000160180B18071809313019091140189179E
:100C200049F0811105C090911F0290932002E7E0E6
:100C30008093140129B12095221F2227221F20937F
:100C40002A0289B182958695877091E08927817003
:100C50008093290239B193279170909328029111C2
:100C600006C0211106C0882331F091E005C091E053
:100C700003C091E001C090E0892F9093120191117F
:100C8000E9E080932D0290912E02891729F08111BD
:100C900001C0EAE080932E0289B182708093100136
:100CA00090911101891791F081110EC0909120024D
:100CB000913009F4E3E0923009F4E4E0933009F470
:100CC000E6E0943009F4E6E08093110189B1827086
:100CD00080932B0290912C02891721F08111E5E07D
:100CE00080932C028E2F90E0FC013197EA30F105C1
:100CF00020F4E359FF4F0C94600F80E0089582E0E8
:100D0000089585E0089583E0089584E0089586E0DD
:100D1000089587E0089588E0089589E008958AE0BD
:100D2000089581E0089580E0089581E0089582E0CB
:100D3000089584E0089582E0089583E008959091F5
:100D40001F02913011F081E001C080E0923009F47F
:100D500080E0089585E0089580912002833041F07D
:100D6000813011F090E001C091E0823009F0892FCC
:100D7000089581E00E94C10286E0089581E00E940A
:100D8000C10280E00895CF93C0913202C23021F4B5
:100D90000E94970680931F02C13021F40E9495069D
:100DA00080931F02C11104C00E94930680931F020A
:100DB000C93021F40E94B90680931F02809132024B
:100DC000873021F40E94AA0680931F02CF910895D4
:100DD000CF93C0913202C23021F40E9497068093D3
:100DE0001F02C63021F40E949F0680931F02C93063
:100DF00021F40E94B90680931F02C0913202C730CD
:100E000021F40E94AA0680931F02C53021F40E949B
:100E10009D0680931F02CF910895CF93C091320217
:100E2000C13021F40E94950680931F02C63021F440
:100E30000E949F0680931F02C93021F40E94B906C8
:100E400080931F02C0913202C73021F40E94AA068B
:100E500080931F02C33021F40E94990680931F02E1
:100E6000CF910895CF93C0913202C53021F40E94F2
:100E7000950680931F02C63021F40E949F0680933E
:100E80001F02C93021F40E94B90680931F0280918D
:100E90003202873021F40E94AA0680931F02CF916C
:100EA0000895CF9380913202893021F40E94B906CF
:100EB00080931F02C0913202C73021F40E94AA061B
:100EC00080931F02C43021F40E949B0680931F026E
:100ED000CF910895109223021092240210922502BD
:100EE0001092260288E080933202089580913202A7
:100EF000883021F40E94AC0680931F02089581E09F
:100F000080931E020E94B4010E94E30185B18860B3
:100F100085B961E081E00E94D8038FE691E00E94EC
:100F2000890480912202813039F462E00E94D80362
:100F300084E891E00E94890480912202833009F0C4
:100F400043C080912A028823A1F080912102813040
:100F500081F462E00E94D80389E991E00E9489044B
:100F600080912902882329F0809128028111109212
:100F70002102809129028823A9F0809121028230E8
:100F800089F462E081E00E94D8038EEA91E00E9439
:100F9000890480912A02882329F0809128028111F6
:100FA0001092210280912802882371F08091210201
:100FB000833051F462E081E00E94D80383EC91E039
:100FC0000E948904109221020895809132028A3091
:100FD00021F40E94BE0680931F020895CF93C82F6C
:100FE000843638F0682F70E080E090E00E949E0424
:100FF00019C086EF8C0F8A3558F48EE291E00E947A
:1010000089046C2F70E080E090E00E949E040AC08A
:101010008DE291E00E9489046C2F70E080E090E006
:101020000E949E04CF910895CF92DF92EF92FF929B
:101030006B017C01603127E272078105910518F090
:101040000E949E0443C0DC01CB01885E9340A1094D
:10105000B10988329342A105B10548F48EE291E0CE
:101060000E948904C701B6010E949E042FC0D701C7
:10107000C60184569109A109B10984389340A1059C
:10108000B10548F48DE291E00E948904C701B601E0
:101090000E949E041BC0D701C6010A97A109B1098D
:1010A0008A359105A105B10548F48CE291E00E94D2
:1010B0008904C701B6010E949E0408C08BE291E03A
:1010C0000E948904C701B6010E949E04FF90EF9020
:1010D000DF90CF90089585B1877F85B90E94B401D4
:1010E0000E94E30110921E0210922A02109229021D
:1010F0001092280280E00E943A01682F70E080E0A0
:1011000090E00E94EA0A20910C0130910D0140917B
:101110000E0150910F010E94760B0E94B90A609354
:10112000270261E081E00E94D80388ED91E00E94EF
:10113000890462E081E00E94D8038DEE91E00E9474
:10114000890462E08BE00E94D803609123027091D1
:10115000240280912502909126020E94E80A2091A3
:1011600008013091090140910A0150910B010E9440
:10117000760B0E94B90A0E94140862E081E10E9485
:10118000D803809127020E94EE0710922002089552
:101190000E94B4010E94E30180E00E943A01682F9E
:1011A00070E080E090E00E94EA0A20910C0130910A
:1011B0000D0140910E0150910F010E94760B0E948B
:1011C000B90A6093270261E081E00E94D80388EDAC
:1011D00091E00E94890462E081E00E94D80387EFD9
:1011E00091E00E94890462E08BE00E94D803609144
:1011F00023027091240280912502909126020E9480
:10120000E80A209108013091090140910A015091AA
:101210000B010E94760B0E94B90A0E94140862E03A
:1012200081E10E94D803809127020E94EE0781E0AD
:101230008093200208950E94B4010E94E30180E09F
:101240000E943A01682F70E080E090E00E94EA0A74
:1012500020910C0130910D0140910E0150910F0130
:101260000E94760B0E94B90A6093270261E081E038
:101270000E94D80388ED91E00E94890462E081E039
:101280000E94D80381E092E00E94890462E08BE032
:101290000E94D8036091230270912402809125025C
:1012A000909126020E94E80A2091080130910901DC
:1012B00040910A0150910B010E94760B0E94B90ADD
:1012C0000E94140862E081E10E94D8038091270205
:1012D0000E94EE0782E080932002089580E00E9441
:1012E0003A0180932702682F70E080E090E00E942E
:1012F000EA0A2091000130910101409102015091D0
:1013000003010E94760B2091040130910501409168
:101310000601509107010E944D0A0E94E901609167
:10132000270270E080E090E00E94EA0A20910C0120
:1013300030910D0140910E0150910F010E94760BEA
:101340000E94B90A609327020E94AB010E94DA0151
:1013500061E081E00E94D80388ED91E00E94890459
:1013600062E081E00E94D8038BE092E00E94890451
:1013700062E08BE00E94D803609123027091240206
:1013800080912502909126020E94E80A209108018E
:101390003091090140910A0150910B010E94760B96
:1013A0000E94B90A0E94140862E081E10E94D803F9
:1013B000809127020E94EE07089580E00E943A0182
:1013C00080932702682F70E080E090E00E94EA0A94
:1013D00020910001309101014091020150910301DF
:1013E0000E94760B20910401309105014091060185
:1013F000509107010E944D0A0E94E9016091270265
:1014000070E080E090E00E94EA0A20910C013091A7
:101410000D0140910E0150910F010E94760B0E9428
:10142000B90A609327020E94AB010E94DA0161E0D1
:1014300081E00E94D80388ED91E00E94890462E077
:1014400081E00E94D80384E192E00E94890462E076
:101450008BE00E94D8036091230270912402809156
:101460002502909126020E94E80A209108013091FD
:10147000090140910A0150910B010E94760B0E94D4
:10148000B90A0E94140862E081E10E94D8038091A9
:1014900027020E94EE0708955058BB27AA270E94F2
:1014A000640A0C943C0B0E942E0B38F00E94350B02
:1014B00020F039F49F3F19F426F40C942B0B0EF412
:1014C000E095E7FB0C94250BE92F0E944D0B58F398
:1014D000BA17620773078407950720F079F4A6F519
:1014E0000C946F0B0EF4E0950B2EBA2FA02D0B0170
:1014F000B90190010C01CA01A0011124FF27591B59
:1015000099F0593F50F4503E68F11A16F040A22F5E
:10151000232F342F4427585FF3CF469537952795CF
:10152000A795F0405395C9F77EF41F16BA0B620BCE
:10153000730B840BBAF09150A1F0FF0FBB1F661F15
:10154000771F881FC2F70EC0BA0F621F731F841F58
:1015500048F4879577956795B795F7959E3F08F07E
:10156000B0CF9395880F08F09927EE0F9795879540
:1015700008950E94550B88F09F5798F0B92F99272E
:10158000B751B0F0E1F0660F771F881F991F1AF06E
:10159000BA95C9F714C0B13091F00E946F0BB1E059
:1015A00008950C946F0B672F782F8827B85F39F058
:1015B000B93FCCF3869577956795B395D9F73EF407
:1015C00090958095709561957F4F8F4F9F4F0895AF
:1015D000E89409C097FB3EF49095809570956195CD
:1015E0007F4F8F4F9F4F9923A9F0F92F96E9BB2783
:1015F0009395F695879577956795B795F111F8CFFF
:10160000FAF4BB0F11F460FF1BC06F5F7F4F8F4F69
:101610009F4F16C0882311F096E911C0772321F05F
:101620009EE8872F762F05C0662371F096E8862FF7
:1016300070E060E02AF09A95660F771F881FDAF74E
:10164000880F9695879597F9089597F99F6780E891
:1016500070E060E008959FEF80EC089500240A9404
:101660001616170618060906089500240A9412167D
:101670001306140605060895092E0394000C11F4B0
:10168000882352F0BB0F40F4BF2B11F460FF04C05D
:101690006F5F7F4F8F4F9F4F089557FD9058440FB6
:1016A000551F59F05F3F71F04795880F97FB991FC1
:1016B00061F09F3F79F0879508951216130614067E
:1016C000551FF2CF4695F1DF08C01616170618060B
:1016D000991FF1CF86957105610508940895E894E6
:1016E000BB2766277727CB0197F908950E94890BBE
:1016F0000C943C0B0E942E0B38F00E94350B20F00E
:10170000952311F00C94250B0C942B0B11240C94A5
:10171000700B0E944D0B70F3959FC1F3950F50E035
:10172000551F629FF001729FBB27F00DB11D639F93
:10173000AA27F00DB11DAA1F649F6627B00DA11D39
:10174000661F829F2227B00DA11D621F739FB00DDF
:10175000A11D621F839FA00D611D221F749F33274F
:10176000A00D611D231F849F600D211D822F762FE8
:101770006A2F11249F5750409AF0F1F088234AF0C5
:10178000EE0FFF1FBB1F661F771F881F9150504031
:10179000A9F79E3F510580F00C94250B0C94700B1B
:1017A0005F3FE4F3983ED4F3869577956795B795B8
:1017B000F795E7959F5FC1F7FE2B880F911D9695D2
:1017C000879597F90895A0E1B0E0E9EEFBE00C946D
:1017D000660F7C011B016A01FC011782168283815E
:1017E00081FF44C39E012F5F3F4F3901F701938171
:1017F000F10193FD859193FF81911F01882309F4E5
:1018000031C3853239F493FD859193FF81911F0196
:10181000853239F4B70190E00E948B1056016501C2
:10182000E5CF10E0512C912CFFE1F915D8F08B3267
:1018300079F038F4803279F08332A1F4F92DF06137
:101840002EC08D3261F0803369F4292D21602DC0C6
:10185000392D3260932E892D8460982E2AC0E92D6F
:10186000E86015C097FC2DC020ED280F2A3088F4C1
:1018700096FE06C03AE0139F200D1124122F19C0C6
:101880008AE0589E200D1124522EE92DE0629E2EF2
:1018900010C08E3231F496FCE5C2F92DF0649F2E13
:1018A00008C08C3621F4292D2068922E02C088367B
:1018B00041F4F10193FD859193FF81911F01811105
:1018C000B3CF9BEB980F933020F4992D9061805EFD
:1018D00007C09BE9980F933008F066C1992D9F7E51
:1018E00096FF16E09F73992E853619F49064992E11
:1018F00008C0863621F4392F3068932E02C01111AA
:10190000115097FE07C01C3350F444244394410EF9
:1019100027E00BC0183038F027E017E005C027E0BB
:101920009CE3492E02C0212F412C560184E0A80ED1
:10193000B11CF6016081718182819381042DA30124
:101940000E949D0F6C01F981FC87F0FF02C0F3FF3C
:1019500006C091FC06C092FE06C000E205C00DE282
:1019600003C00BE201C000E08C858C7019F00111FE
:101970005AC29BC297FE10C04C0CFC85F4FF04C0F9
:101980008A81813309F44A94141474F528E02415EB
:1019900078F588E0482E2CC096FC2AC0812F90E074
:1019A0008C159D059CF03CEFC3163FEFD30674F0F9
:1019B000892D8068982E0AC0E2E0F0E0EC0FFD1F50
:1019C000E10FF11D8081803319F411501111F4CF12
:1019D00097FE0EC044244394410E812F90E0C81618
:1019E000D9062CF41C1904C04424439401C010E00F
:1019F00097FE06C01C141D0434F4C601019605C0F0
:101A000085E090E002C081E090E001110196112391
:101A100031F0212F30E02F5F3F4F820F931F252D94
:101A200030E08217930714F4581A01C0512C892D05
:101A3000897049F4552039F0B70180E290E00E94A6
:101A40008B105A94F7CF002329F0B701802F90E034
:101A50000E948B1093FC09C0552039F0B70180E338
:101A600090E00E948B105A94F7CF97FE4CC046012D
:101A7000D7FE02C0812C912CC60188199909F30167
:101A8000E80FF91FFE87ED87960124193109388B7D
:101A90002F87012F10E01195019511093FEF831653
:101AA000930629F4B7018EE290E00E948B10C814CF
:101AB000D9044CF08F8598898815990524F4ED8513
:101AC000FE85818101C080E3F1E08F1A91082D85A8
:101AD0003E852F5F3F4F3E872D87801691062CF065
:101AE000B70190E00E948B10D9CFC814D90441F4FB
:101AF0009A81963320F4953319F43C8534FF81E3C1
:101B0000B70190E04EC08A81813319F09C859F7E99
:101B10009C87B70190E00E948B10111105C094FCC6
:101B200018C085E690E017C0B7018EE290E00E94F1
:101B30008B101E5F82E001E0080FF301E80FF11D3A
:101B40008081B70190E00E948B10802F0113F3CFAA
:101B5000E6CF85E490E0B7010E948B10D7FC06C069
:101B6000C114D10441F4EC85E4FF05C0D194C194C3
:101B7000D1088DE201C08BE2B70190E00E948B108A
:101B800080E32AE0C216D1042CF08F5FFAE0CF1A6E
:101B9000D108F7CFB70190E00E948B10B701C601C2
:101BA000C0960E948B1054C1833631F0833779F090
:101BB000833509F056C020C0560132E0A30EB11C97
:101BC000F6018081898301E010E0630112C05601B3
:101BD000F2E0AF0EB11CF601C080D18096FE03C0CA
:101BE000612F70E002C06FEF7FEFC6010E9480108E
:101BF0008C01F92DFF7714C0560122E0A20EB11C12
:101C0000F601C080D18096FE03C0612F70E002C053
:101C10006FEF7FEFC6010E9475108C01F92DF068FF
:101C20009F2EF3FD1AC0852D90E008171907A8F420
:101C3000B70180E290E00E948B105A94F4CFF60135
:101C400097FC859197FE81916F01B70190E00E940A
:101C50008B1051105A94015011090115110579F793
:101C6000F7C0843611F0893661F5560197FE09C038
:101C700024E0A20EB11CF601608171818281938102
:101C80000AC0F2E0AF0EB11CF60160817181072E2F
:101C9000000C880B990BF92DFF769F2E97FF09C03A
:101CA00090958095709561957F4F8F4F9F4FF0680D
:101CB0009F2E2AE030E0A3010E94C710C82EC6184C
:101CC0003FC0092D853721F40F7E2AE030E01DC08A
:101CD000097F8F3691F018F4883559F0C3C08037EA
:101CE00019F0883711F0BEC0006104FF09C004601C
:101CF00007C094FE08C0066006C028E030E005C0BA
:101D000020E130E002C020E132E0560107FF09C0C7
:101D100084E0A80EB11CF6016081718182819381FB
:101D200008C0F2E0AF0EB11CF6016081718180E065
:101D300090E0A3010E94C710C82EC6180F77902EFE
:101D400096FE0BC0092D0E7FC11650F494FE0AC0FA
:101D500092FC08C0092D0E7E05C0DC2C092D03C0A5
:101D6000DC2C01C0D12E04FF0DC0FE01EC0DF11DD5
:101D70008081803311F4097E09C002FF06C0D3942C
:101D8000D39404C0802F867809F0D39403FD11C04A
:101D900000FF06C01C2DD51480F4150D1D190DC0B3
:101DA000D51458F4B70180E290E00E948B10D394D0
:101DB000F7CFD51410F45D1801C0512C04FF10C0EA
:101DC000B70180E390E00E948B1002FF17C001FD75
:101DD00003C088E790E002C088E590E0B7010CC03E
:101DE000802F867859F001FF02C08BE201C080E2AB
:101DF00007FD8DE2B70190E00E948B10C11638F408
:101E0000B70180E390E00E948B101150F7CFCA9485
:101E1000F301EC0DF11D8081B70190E00E948B1061
:101E2000C110F5CF15C0F4E0F51560F584E0581A3F
:101E300093FE1FC0011127C02C8523FF2AC00EEE80
:101E400010E0392D3071932EF8018491811124C056
:101E5000552009F4E4CCB70180E290E00E948B1099
:101E60005A94F6CFF7018681978126C08FEF9FEFB6
:101E700023C0B70180E290E00E948B105A94511069
:101E8000F8CFD8CF512CB701802F90E00E948B1053
:101E9000D3CF02EF10E0D5CF91108052B70190E080
:101EA0000E948B100F5F1F4FCFCF23E0251510F43A
:101EB00083E0BDCF512CC0CF6096E2E10C94820F3D
:101EC000EE0FFF1F0590F491E02D09942F923F92A1
:101ED0004F925F926F927F928F929F92AF92BF923A
:101EE000CF92DF92EF92FF920F931F93CF93DF93E6
:101EF000CDB7DEB7CA1BDB0B0FB6F894DEBF0FBE43
:101F0000CDBF09942A88398848885F846E847D848F
:101F10008C849B84AA84B984C884DF80EE80FD8091
:101F20000C811B81AA81B981CE0FD11D0FB6F89407
:101F3000DEBF0FBECDBFED010895283008F027E0C9
:101F40003327DA01990F311D87FD916000966105F5
:101F5000710539F432602E5F3D9330E32A95E1F745
:101F600008959F3F30F080387105610509F03C5FAE
:101F70003C5F3D93913008F08068911DDF93CF93D3
:101F80001F930F93FF92EF92192F987F9695E92F49
:101F900096959695E90FFF27E05BFE4F992733272B
:101FA000EE24FF24A701E70105900894079428F484
:101FB000360FE71EF81E491F511D660F771F881F39
:101FC000991F0694A1F70590079428F4E70EF81ED0
:101FD000491F561FC11D770F881F991F661F069442
:101FE000A1F70590079428F4F80E491F561FC71F44
:101FF000D11D880F991F661F771F0694A1F70590C2
:10200000079420F4490F561FC71FD81F990F661F4A
:10201000771F881F0694A9F784911095177041F0D7
:10202000D695C79557954795F794E7941A95C1F7B4
:10203000E6EFF0E0689415901591359165919591D2
:1020400005907FE27395E118F10A430B560BC90B1B
:10205000D009C0F7E10CF11E431F561FC91FD01D48
:102060007EF4703311F48A95E6CFE894015030F095
:10207000080F0AF40027021708F4202F2395022FD7
:102080007A3328F079E37D932A95E9F710C07D93A0
:102090002A9589F60694979567953795179517941D
:1020A000E118F10A430B560BC90BD00998F02395A0
:1020B0007E9173957A3308F070E37C932013B8F720
:1020C0007E9170617D9330F0839571E37D9370E331
:1020D0002A95E1F71124EF90FF900F911F91CF9176
:1020E000DF91992787FD90950895FC010590615037
:1020F00070400110D8F7809590958E0F9F1F08951E
:10210000FC016150704001900110D8F780959095C6
:102110008E0F9F1F08950F931F93CF93DF93FB01A3
:10212000238121FD03C08FEF9FEF2CC022FF16C03B
:1021300046815781248135814217530744F4A08199
:10214000B1819D012F5F3F4F318320838C93268186
:1021500037812F5F3F4F3783268314C08B01EC01FB
:10216000FB010084F185E02D0995892BE1F6D8016A
:1021700016968D919C911797019617969C938E9326
:102180001697CE01DF91CF911F910F910895FA011B
:10219000AA27283051F1203181F1E8946F936E7FA6
:1021A0006E5F7F4F8F4F9F4FAF4FB1E03ED0B4E097
:1021B0003CD0670F781F891F9A1FA11D680F791FD8
:1021C0008A1F911DA11D6A0F711D811D911DA11DE9
:1021D00020D009F468943F912AE0269F11243019F9
:1021E000305D3193DEF6CF010895462F4770405D94
:1021F0004193B3E00FD0C9F7F6CF462F4F70405D43
:102200004A3318F0495D31FD4052419302D0A9F79D
:10221000EACFB4E0A6959795879577956795BA9597
:10222000C9F700976105710508959B01AC010A2E5D
:1022300006945795479537952795BA95C9F7620F34
:0E224000731F841F951FA01D0895F894FFCFF3
:10224E005C8F423E0000BE420AD7A33A0C93C93EB1
:10225E0001010101010101010101012020202020C5
:10226E004249454E56454E49444F202020202000DD
:10227E002056454D4147202D20456D627574696489
:10228E006F72612000202020202045504C494D497E
:10229E004E2E53414320202020002054656C65664D
:1022AE006F6E6F3A203332362D323239382000209D
:1022BE002020202150524543415543494F4E212065
:1022CE002020200052657669736172206C6F732036
:1022DE0073656E736F72657300202020202041633A
:1022EE006569746520416C746F20202020002020C9
:1022FE002020204163656974652042616A6F202049
:10230E0020200053656E736F722064652050726FCB
:10231E0074656363696F6E004D6F646F20202020BB
:10232E00202020434E54202056454C20002D2D2D8C
:10233E002053544F5020004155542D53544F50208C
:10234E00004D414E2D53544F5020004155542D52A7
:0E235E00554E20004D414E2D52554E20000090
:00000001FF
